{
  "_format": "hh-sol-artifact-1",
  "contractName": "MyToken",
  "sourceName": "contracts/Token.sol",
  "abi": [
    {
      "inputs": [
        {
          "internalType": "string",
          "name": "_name",
          "type": "string"
        },
        {
          "internalType": "string",
          "name": "symbol",
          "type": "string"
        },
        {
          "internalType": "address",
          "name": "_reciever",
          "type": "address"
        }
      ],
      "stateMutability": "nonpayable",
      "type": "constructor"
    },
    {
      "anonymous": false,
      "inputs": [
        {
          "indexed": true,
          "internalType": "address",
          "name": "owner",
          "type": "address"
        },
        {
          "indexed": true,
          "internalType": "address",
          "name": "spender",
          "type": "address"
        },
        {
          "indexed": false,
          "internalType": "uint256",
          "name": "value",
          "type": "uint256"
        }
      ],
      "name": "Approval",
      "type": "event"
    },
    {
      "anonymous": false,
      "inputs": [
        {
          "indexed": true,
          "internalType": "address",
          "name": "previousOwner",
          "type": "address"
        },
        {
          "indexed": true,
          "internalType": "address",
          "name": "newOwner",
          "type": "address"
        }
      ],
      "name": "OwnershipTransferred",
      "type": "event"
    },
    {
      "anonymous": false,
      "inputs": [
        {
          "indexed": true,
          "internalType": "address",
          "name": "from",
          "type": "address"
        },
        {
          "indexed": true,
          "internalType": "address",
          "name": "to",
          "type": "address"
        },
        {
          "indexed": false,
          "internalType": "uint256",
          "name": "value",
          "type": "uint256"
        }
      ],
      "name": "Transfer",
      "type": "event"
    },
    {
      "inputs": [
        {
          "internalType": "address",
          "name": "",
          "type": "address"
        }
      ],
      "name": "addressTime",
      "outputs": [
        {
          "internalType": "uint256",
          "name": "",
          "type": "uint256"
        }
      ],
      "stateMutability": "view",
      "type": "function"
    },
    {
      "inputs": [
        {
          "internalType": "address[]",
          "name": "_airdrops",
          "type": "address[]"
        }
      ],
      "name": "airdrop",
      "outputs": [],
      "stateMutability": "nonpayable",
      "type": "function"
    },
    {
      "inputs": [
        {
          "internalType": "address",
          "name": "owner",
          "type": "address"
        },
        {
          "internalType": "address",
          "name": "spender",
          "type": "address"
        }
      ],
      "name": "allowance",
      "outputs": [
        {
          "internalType": "uint256",
          "name": "",
          "type": "uint256"
        }
      ],
      "stateMutability": "view",
      "type": "function"
    },
    {
      "inputs": [
        {
          "internalType": "address",
          "name": "spender",
          "type": "address"
        },
        {
          "internalType": "uint256",
          "name": "amount",
          "type": "uint256"
        }
      ],
      "name": "approve",
      "outputs": [
        {
          "internalType": "bool",
          "name": "",
          "type": "bool"
        }
      ],
      "stateMutability": "nonpayable",
      "type": "function"
    },
    {
      "inputs": [
        {
          "internalType": "address",
          "name": "account",
          "type": "address"
        }
      ],
      "name": "balanceOf",
      "outputs": [
        {
          "internalType": "uint256",
          "name": "",
          "type": "uint256"
        }
      ],
      "stateMutability": "view",
      "type": "function"
    },
    {
      "inputs": [
        {
          "internalType": "uint256",
          "name": "_amount",
          "type": "uint256"
        }
      ],
      "name": "buy",
      "outputs": [],
      "stateMutability": "payable",
      "type": "function"
    },
    {
      "inputs": [],
      "name": "decimals",
      "outputs": [
        {
          "internalType": "uint8",
          "name": "",
          "type": "uint8"
        }
      ],
      "stateMutability": "view",
      "type": "function"
    },
    {
      "inputs": [
        {
          "internalType": "address",
          "name": "spender",
          "type": "address"
        },
        {
          "internalType": "uint256",
          "name": "subtractedValue",
          "type": "uint256"
        }
      ],
      "name": "decreaseAllowance",
      "outputs": [
        {
          "internalType": "bool",
          "name": "",
          "type": "bool"
        }
      ],
      "stateMutability": "nonpayable",
      "type": "function"
    },
    {
      "inputs": [],
      "name": "faucet",
      "outputs": [],
      "stateMutability": "nonpayable",
      "type": "function"
    },
    {
      "inputs": [
        {
          "internalType": "address",
          "name": "spender",
          "type": "address"
        },
        {
          "internalType": "uint256",
          "name": "addedValue",
          "type": "uint256"
        }
      ],
      "name": "increaseAllowance",
      "outputs": [
        {
          "internalType": "bool",
          "name": "",
          "type": "bool"
        }
      ],
      "stateMutability": "nonpayable",
      "type": "function"
    },
    {
      "inputs": [
        {
          "internalType": "address",
          "name": "to",
          "type": "address"
        },
        {
          "internalType": "uint256",
          "name": "amount",
          "type": "uint256"
        }
      ],
      "name": "mint",
      "outputs": [],
      "stateMutability": "nonpayable",
      "type": "function"
    },
    {
      "inputs": [],
      "name": "name",
      "outputs": [
        {
          "internalType": "string",
          "name": "",
          "type": "string"
        }
      ],
      "stateMutability": "view",
      "type": "function"
    },
    {
      "inputs": [],
      "name": "owner",
      "outputs": [
        {
          "internalType": "address",
          "name": "",
          "type": "address"
        }
      ],
      "stateMutability": "view",
      "type": "function"
    },
    {
      "inputs": [],
      "name": "renounceOwnership",
      "outputs": [],
      "stateMutability": "nonpayable",
      "type": "function"
    },
    {
      "inputs": [],
      "name": "symbol",
      "outputs": [
        {
          "internalType": "string",
          "name": "",
          "type": "string"
        }
      ],
      "stateMutability": "view",
      "type": "function"
    },
    {
      "inputs": [],
      "name": "totalSupply",
      "outputs": [
        {
          "internalType": "uint256",
          "name": "",
          "type": "uint256"
        }
      ],
      "stateMutability": "view",
      "type": "function"
    },
    {
      "inputs": [
        {
          "internalType": "address",
          "name": "to",
          "type": "address"
        },
        {
          "internalType": "uint256",
          "name": "amount",
          "type": "uint256"
        }
      ],
      "name": "transfer",
      "outputs": [
        {
          "internalType": "bool",
          "name": "",
          "type": "bool"
        }
      ],
      "stateMutability": "nonpayable",
      "type": "function"
    },
    {
      "inputs": [
        {
          "internalType": "address",
          "name": "from",
          "type": "address"
        },
        {
          "internalType": "address",
          "name": "to",
          "type": "address"
        },
        {
          "internalType": "uint256",
          "name": "amount",
          "type": "uint256"
        }
      ],
      "name": "transferFrom",
      "outputs": [
        {
          "internalType": "bool",
          "name": "",
          "type": "bool"
        }
      ],
      "stateMutability": "nonpayable",
      "type": "function"
    },
    {
      "inputs": [
        {
          "internalType": "address",
          "name": "newOwner",
          "type": "address"
        }
      ],
      "name": "transferOwnership",
      "outputs": [],
      "stateMutability": "nonpayable",
      "type": "function"
    },
    {
      "inputs": [],
      "name": "withdraw",
      "outputs": [],
      "stateMutability": "nonpayable",
      "type": "function"
    }
  ],
  "bytecode": "0x6080604052670de0b6b3a76400006006553480156200001d57600080fd5b506040516200157638038062001576833981016040819052620000409162000356565b82518390839062000059906003906020850190620001f9565b5080516200006f906004906020840190620001f9565b5050506200008c62000086620000bb60201b60201c565b620000bf565b620000b2816200009f6012600a62000447565b620000ac9060c862000515565b62000111565b505050620005a0565b3390565b600580546001600160a01b038381166001600160a01b0319831681179093556040519116919082907f8be0079c531659141344cd1fd0a4f28419497f9722a3daafe3b4186f6b6457e090600090a35050565b6001600160a01b0382166200016c5760405162461bcd60e51b815260206004820152601f60248201527f45524332303a206d696e7420746f20746865207a65726f206164647265737300604482015260640160405180910390fd5b8060026000828254620001809190620003e3565b90915550506001600160a01b03821660009081526020819052604081208054839290620001af908490620003e3565b90915550506040518181526001600160a01b038316906000907fddf252ad1be2c89b69c2b068fc378daa952ba7f163c4a11628f55a4df523b3ef9060200160405180910390a35050565b828054620002079062000537565b90600052602060002090601f0160209004810192826200022b576000855562000276565b82601f106200024657805160ff191683800117855562000276565b8280016001018555821562000276579182015b828111156200027657825182559160200191906001019062000259565b506200028492915062000288565b5090565b5b8082111562000284576000815560010162000289565b600082601f830112620002b157600080fd5b81516001600160401b0380821115620002ce57620002ce6200058a565b604051601f8301601f19908116603f01168101908282118183101715620002f957620002f96200058a565b816040528381526020925086838588010111156200031657600080fd5b600091505b838210156200033a57858201830151818301840152908201906200031b565b838211156200034c5760008385830101525b9695505050505050565b6000806000606084860312156200036c57600080fd5b83516001600160401b03808211156200038457600080fd5b62000392878388016200029f565b94506020860151915080821115620003a957600080fd5b50620003b8868287016200029f565b604086015190935090506001600160a01b0381168114620003d857600080fd5b809150509250925092565b60008219821115620003f957620003f962000574565b500190565b600181815b808511156200043f57816000190482111562000423576200042362000574565b808516156200043157918102915b93841c939080029062000403565b509250929050565b60006200045860ff8416836200045f565b9392505050565b60008262000470575060016200050f565b816200047f575060006200050f565b8160018114620004985760028114620004a357620004c3565b60019150506200050f565b60ff841115620004b757620004b762000574565b50506001821b6200050f565b5060208310610133831016604e8410600b8410161715620004e8575081810a6200050f565b620004f48383620003fe565b80600019048211156200050b576200050b62000574565b0290505b92915050565b600081600019048311821515161562000532576200053262000574565b500290565b600181811c908216806200054c57607f821691505b602082108114156200056e57634e487b7160e01b600052602260045260246000fd5b50919050565b634e487b7160e01b600052601160045260246000fd5b634e487b7160e01b600052604160045260246000fd5b610fc680620005b06000396000f3fe60806040526004361061011f5760003560e01c8063729ad39e116100a0578063d96a094a11610064578063d96a094a14610319578063dd62ed3e1461032c578063de5f72fd1461034c578063f179b66d14610361578063f2fde38b1461038e57600080fd5b8063729ad39e1461027c5780638da5cb5b1461029c57806395d89b41146102c4578063a457c2d7146102d9578063a9059cbb146102f957600080fd5b806339509351116100e757806339509351146101da5780633ccfd60b146101fa57806340c10f191461021157806370a0823114610231578063715018a61461026757600080fd5b806306fdde0314610124578063095ea7b31461014f57806318160ddd1461017f57806323b872dd1461019e578063313ce567146101be575b600080fd5b34801561013057600080fd5b506101396103ae565b6040516101469190610e56565b60405180910390f35b34801561015b57600080fd5b5061016f61016a366004610d47565b610440565b6040519015158152602001610146565b34801561018b57600080fd5b506002545b604051908152602001610146565b3480156101aa57600080fd5b5061016f6101b9366004610d0b565b610458565b3480156101ca57600080fd5b5060405160128152602001610146565b3480156101e657600080fd5b5061016f6101f5366004610d47565b61047c565b34801561020657600080fd5b5061020f61049e565b005b34801561021d57600080fd5b5061020f61022c366004610d47565b610500565b34801561023d57600080fd5b5061019061024c366004610cb6565b6001600160a01b031660009081526020819052604090205490565b34801561027357600080fd5b5061020f610538565b34801561028857600080fd5b5061020f610297366004610d71565b61056e565b3480156102a857600080fd5b506005546040516001600160a01b039091168152602001610146565b3480156102d057600080fd5b506101396105db565b3480156102e557600080fd5b5061016f6102f4366004610d47565b6105ea565b34801561030557600080fd5b5061016f610314366004610d47565b610665565b61020f610327366004610e3d565b610673565b34801561033857600080fd5b50610190610347366004610cd8565b6106ba565b34801561035857600080fd5b5061020f6106e5565b34801561036d57600080fd5b5061019061037c366004610cb6565b60076020526000908152604090205481565b34801561039a57600080fd5b5061020f6103a9366004610cb6565b610765565b6060600380546103bd90610ef8565b80601f01602080910402602001604051908101604052809291908181526020018280546103e990610ef8565b80156104365780601f1061040b57610100808354040283529160200191610436565b820191906000526020600020905b81548152906001019060200180831161041957829003601f168201915b5050505050905090565b60003361044e8185856107fd565b5060019392505050565b600033610466858285610921565b61047185858561099b565b506001949350505050565b60003361044e81858561048f83836106ba565b6104999190610ee0565b6107fd565b6005546001600160a01b031633146104d15760405162461bcd60e51b81526004016104c890610eab565b60405180910390fd5b60405133904780156108fc02916000818181858888f193505050501580156104fd573d6000803e3d6000fd5b50565b6005546001600160a01b0316331461052a5760405162461bcd60e51b81526004016104c890610eab565b6105348282610b69565b5050565b6005546001600160a01b031633146105625760405162461bcd60e51b81526004016104c890610eab565b61056c6000610c48565b565b6005546001600160a01b031633146105985760405162461bcd60e51b81526004016104c890610eab565b60005b8151811015610534576105c98282815181106105b9576105b9610f64565b6020026020010151600654610b69565b806105d381610f33565b91505061059b565b6060600480546103bd90610ef8565b600033816105f882866106ba565b9050838110156106585760405162461bcd60e51b815260206004820152602560248201527f45524332303a2064656372656173656420616c6c6f77616e63652062656c6f77604482015264207a65726f60d81b60648201526084016104c8565b61047182868684036107fd565b60003361044e81858561099b565b600034116106b05760405162461bcd60e51b815260206004820152600a60248201526973656e64206d6f6e657960b01b60448201526064016104c8565b6104fd3382610b69565b6001600160a01b03918216600090815260016020908152604080832093909416825291909152205490565b33600090815260076020526040902054421161073c5760405162461bcd60e51b81526020600482015260166024820152756e65656420746f2077616974206d6f72652074696d6560501b60448201526064016104c8565b61074833600654610b69565b61075342601e610ee0565b33600090815260076020526040902055565b6005546001600160a01b0316331461078f5760405162461bcd60e51b81526004016104c890610eab565b6001600160a01b0381166107f45760405162461bcd60e51b815260206004820152602660248201527f4f776e61626c653a206e6577206f776e657220697320746865207a65726f206160448201526564647265737360d01b60648201526084016104c8565b6104fd81610c48565b6001600160a01b03831661085f5760405162461bcd60e51b8152602060048201526024808201527f45524332303a20617070726f76652066726f6d20746865207a65726f206164646044820152637265737360e01b60648201526084016104c8565b6001600160a01b0382166108c05760405162461bcd60e51b815260206004820152602260248201527f45524332303a20617070726f766520746f20746865207a65726f206164647265604482015261737360f01b60648201526084016104c8565b6001600160a01b0383811660008181526001602090815260408083209487168084529482529182902085905590518481527f8c5be1e5ebec7d5bd14f71427d1e84f3dd0314c0f7b2291e5b200ac8c7c3b925910160405180910390a3505050565b600061092d84846106ba565b9050600019811461099557818110156109885760405162461bcd60e51b815260206004820152601d60248201527f45524332303a20696e73756666696369656e7420616c6c6f77616e636500000060448201526064016104c8565b61099584848484036107fd565b50505050565b6001600160a01b0383166109ff5760405162461bcd60e51b815260206004820152602560248201527f45524332303a207472616e736665722066726f6d20746865207a65726f206164604482015264647265737360d81b60648201526084016104c8565b6001600160a01b038216610a615760405162461bcd60e51b815260206004820152602360248201527f45524332303a207472616e7366657220746f20746865207a65726f206164647260448201526265737360e81b60648201526084016104c8565b6001600160a01b03831660009081526020819052604090205481811015610ad95760405162461bcd60e51b815260206004820152602660248201527f45524332303a207472616e7366657220616d6f756e7420657863656564732062604482015265616c616e636560d01b60648201526084016104c8565b6001600160a01b03808516600090815260208190526040808220858503905591851681529081208054849290610b10908490610ee0565b92505081905550826001600160a01b0316846001600160a01b03167fddf252ad1be2c89b69c2b068fc378daa952ba7f163c4a11628f55a4df523b3ef84604051610b5c91815260200190565b60405180910390a3610995565b6001600160a01b038216610bbf5760405162461bcd60e51b815260206004820152601f60248201527f45524332303a206d696e7420746f20746865207a65726f20616464726573730060448201526064016104c8565b8060026000828254610bd19190610ee0565b90915550506001600160a01b03821660009081526020819052604081208054839290610bfe908490610ee0565b90915550506040518181526001600160a01b038316906000907fddf252ad1be2c89b69c2b068fc378daa952ba7f163c4a11628f55a4df523b3ef9060200160405180910390a35050565b600580546001600160a01b038381166001600160a01b0319831681179093556040519116919082907f8be0079c531659141344cd1fd0a4f28419497f9722a3daafe3b4186f6b6457e090600090a35050565b80356001600160a01b0381168114610cb157600080fd5b919050565b600060208284031215610cc857600080fd5b610cd182610c9a565b9392505050565b60008060408385031215610ceb57600080fd5b610cf483610c9a565b9150610d0260208401610c9a565b90509250929050565b600080600060608486031215610d2057600080fd5b610d2984610c9a565b9250610d3760208501610c9a565b9150604084013590509250925092565b60008060408385031215610d5a57600080fd5b610d6383610c9a565b946020939093013593505050565b60006020808385031215610d8457600080fd5b823567ffffffffffffffff80821115610d9c57600080fd5b818501915085601f830112610db057600080fd5b813581811115610dc257610dc2610f7a565b8060051b604051601f19603f83011681018181108582111715610de757610de7610f7a565b604052828152858101935084860182860187018a1015610e0657600080fd5b600095505b83861015610e3057610e1c81610c9a565b855260019590950194938601938601610e0b565b5098975050505050505050565b600060208284031215610e4f57600080fd5b5035919050565b600060208083528351808285015260005b81811015610e8357858101830151858201604001528201610e67565b81811115610e95576000604083870101525b50601f01601f1916929092016040019392505050565b6020808252818101527f4f776e61626c653a2063616c6c6572206973206e6f7420746865206f776e6572604082015260600190565b60008219821115610ef357610ef3610f4e565b500190565b600181811c90821680610f0c57607f821691505b60208210811415610f2d57634e487b7160e01b600052602260045260246000fd5b50919050565b6000600019821415610f4757610f47610f4e565b5060010190565b634e487b7160e01b600052601160045260246000fd5b634e487b7160e01b600052603260045260246000fd5b634e487b7160e01b600052604160045260246000fdfea264697066735822122096924960039fbb3d16630e1ea3edff6961cc5fe9b764826462b76ace3aeefcef64736f6c63430008070033",
  "linkReferences": {},
  "deployedLinkReferences": {}
}